:100000000C9452010C947A010C947A010C947A01AC
:100010000C947A010C947A010C947A010C947A0174
:100020000C947A010C947A010C947A010C947A0164
:100030000C947A010C947A010C947A010C947A0154
:100040000C9464070C947A010C9432070C940C07FE
:100050000C947A010C947A010C947A010C947A0134
:100060000C947A010C947A01000000002300260011
:100070002900000000000000005F000000070007EA
:1000800000147F147F14242A7F2A12231308646229
:1000900036495522500005030000001C2241000093
:1000A00041221C0014083E081408083E08080050AD
:1000B00030000008080808080060600000201008F0
:1000C00004023E5149453E00427F40004261514991
:1000D000462141454B311814127F102745454539BB
:1000E0003C4A4949300171090503364949493606F8
:1000F0004949291E00363600000056360000081413
:100100002241001414141414004122140802015155
:100110000906324979413E7E1111117E7F494949D4
:10012000363E414141227F4141221C7F494949419C
:100130007F090909013E4149497A7F0808087F0083
:10014000417F41002040413F017F081422417F4010
:100150004040407F020C027F7F0408107F3E4141F7
:10016000413E7F090909063E4151215E7F09192957
:1001700046464949493101017F01013F4040403F26
:100180001F2040201F3F4038403F6314081463077E
:10019000087008076151494543007F41410002044E
:1001A0000810200041417F00040201020440404049
:1001B0004040000102040020545454787F484444D5
:1001C000383844444420384444487F385454541800
:1001D000087E0901020C5252523E7F080404780046
:1001E000447D40002040443D007F102844000041F1
:1001F0007F40007C041804787C0804047838444468
:1002000044387C14141408081414187C7C08040462
:10021000084854545420043F4440203C4040207C33
:100220001C2040201C3C4030403C44281028440CFA
:100230005050503C4464544C440008364100000087
:100240007F00000041360800100808100800000078
:10025000000000000000240027002A000000000029
:10026000250028002B0004040404040404040202F2
:100270000202020203030303030301020408102025
:100280004080010204081020010204081020000030
:100290000008000201000003040700000000000045
:1002A0000000AE0711241FBECFEFD8E0DEBFCDBFE8
:1002B00011E0A0E0B1E0EEE8F7E102C005900D9298
:1002C000AC35B107D9F722E0ACE5B1E001C01D9231
:1002D000A035B207E1F711E0C2E5D1E004C02197F3
:1002E000FE010E94BA0BC135D107C9F70E94ED0784
:1002F0000C94C50B0C94000023EF34E045EB5FE356
:100300000E94A60908950895DC01ED91FC910190E9
:10031000F081E02D0994CF92DF92EF92FF920F933C
:100320001F93CF93DF936C017A018B01C0E0D0E083
:10033000CE15DF0581F0D8016D918D01D601ED91CB
:10034000FC910190F081E02DC6010995892B11F0F7
:100350002196EECF7E01C701DF91CF911F910F91C2
:10036000FF90EF90DF90CF900895FC01538D448D66
:10037000252F30E0842F90E0821B930B541710F050
:10038000CF96089501970895FC01918D828D98175D
:1003900061F0828DDF01A80FB11D5D968C91928D69
:1003A0009F5F9F73928F90E008958FEF9FEF089566
:1003B000FC01918D828D981731F0828DE80FF11D2F
:1003C000858D90E008958FEF9FEF0895FC01918D4A
:1003D000228D892F90E0805C9F4F821B91098F7343
:1003E0009927089585E691E00E94E60121E0892B96
:1003F00009F420E0822F0895FC01848DDF01A80F0D
:10040000B11DA35ABF4F2C91848D90E001968F733C
:100410009927848FA689B7892C93A089B1898C915B
:10042000837080648C93938D848D981306C00288AA
:10043000F389E02D80818F7D80830895EF92FF9274
:100440000F931F93CF93DF93EC0181E0888F9B8DF7
:100450008C8D981305C0E889F989808185FD26C0B7
:10046000F62E0B8D10E00F5F1F4F0F731127E02E3C
:100470008C8DE8120CC00FB607FCFACFE889F98919
:10048000808185FFF5CFCE010E94FC01F1CF8B8DDD
:10049000FE01E80FF11DE35AFF4FF0829FB7F89479
:1004A0000B8FEA89FB89808180620AC09FB7F8942C
:1004B000EE89FF896083E889F9898081837080648F
:1004C00080839FBF81E090E0DF91CF911F910F91DA
:1004D000FF90EF900895CF93DF93EC01888D8823F0
:1004E000C9F0EA89FB89808185FD05C0A889B989A1
:1004F0008C9186FD0FC00FB607FCF5CF808185FF7C
:10050000F2CFA889B9898C9185FFEDCFCE010E94E9
:10051000FC01E7CFDF91CF91089580E090E0892B37
:1005200029F00E94F20181110C940000089583309B
:1005300081F028F4813099F08230A1F0089587305D
:10054000A9F08830B9F08430D1F4809180008F7D9B
:1005500003C0809180008F7780938000089584B5D8
:100560008F7702C084B58F7D84BD08958091B000DF
:100570008F7703C08091B0008F7D8093B000089585
:100580001F93CF93DF93282F30E0F901E257FD4FFF
:100590008491F901E658FD4FD491F901EA59FD4FD4
:1005A000C491CC23C1F0162F81110E949702EC2F29
:1005B000F0E0EE0FFF1FE45AFD4FA591B4919FB7F5
:1005C000F894111104C08C91D095D82302C0EC91FD
:1005D000DE2BDC939FBFDF91CF911F910895CF93C6
:1005E000DF9390E0FC01E658FD4F2491FC01EA59AD
:1005F000FD4F8491882361F190E0880F991FFC01E1
:10060000EE5AFD4FC591D491FC01E45AFD4FA591DE
:10061000B491611109C09FB7F89488812095822315
:100620008883EC912E230BC0623061F49FB7F8945D
:100630008881322F309583238883EC912E2B2C9345
:100640009FBF06C08FB7F894E8812E2B28838FBFF9
:10065000DF91CF9108958E3008F08E5087708064BE
:1006600080937C0080917A00806480937A008091EE
:100670007A0086FDFCCF809178002091790090E08F
:10068000922B08953FB7F894809161019091620197
:10069000A0916301B091640126B5A89B05C02F3FCE
:1006A00019F00196A11DB11D3FBFBA2FA92F982F98
:1006B0008827820F911DA11DB11DBC01CD0142E013
:1006C000660F771F881F991F4A95D1F708958F925B
:1006D0009F92AF92BF92CF92DF92EF92FF926B0107
:1006E0007C010E9442034B015C01C114D104E1046E
:1006F000F104F1F00E944203DC01CB018819990951
:10070000AA09BB09883E9340A105B10570F321E019
:10071000C21AD108E108F10888EE880E83E0981E1D
:10072000A11CB11CC114D104E104F10419F7DDCFFF
:10073000FF90EF90DF90CF90BF90AF909F908F9001
:100740000895089580E090E00895EF92FF920F934E
:100750001F93CF93DF93EC01042F8E810E94C00280
:1007600060E088850E94C002FC80ED8018E0602F68
:10077000661F6627661F8E2D0E94C002000F61E073
:100780008F2D0E94C00260E08F2D0E94C002115088
:1007900071F761E08885DF91CF911F910F91FF90F4
:1007A000EF900C94C002CF93DF93C2E0D2E01C869E
:1007B000282F30E09B8569E3969F612D1124669573
:1007C00070E06F5F7F4FC9010E94700B8D8740E81A
:1007D00060E0CE010E94A5034D85406460E0CE013B
:1007E000DF91CF910C94A5030E94C00B6115710598
:1007F00079F0FB0101900020E9F73197AF01461B2A
:10080000570BDC01ED91FC910280F381E02D0994FE
:1008100080E090E008958F929F92AF92BF92EF9206
:10082000FF920F931F93CF93DF93CDB7DEB7A197BE
:100830000FB6F894DEBF0FBECDBF7C01FA01CB012D
:1008400019A2223008F42AE08E010F5D1F4F822E7C
:10085000912CA12CB12CBF01A50194010E94840B05
:10086000F901CA01015011096A3014F4605D01C038
:10087000695CD8016C93232B242B252B61F7B801DD
:10088000C7010E94F603A1960FB6F894DEBF0FBE13
:10089000CDBFDF91CF911F910F91FF90EF90BF904F
:1008A000AF909F908F900895CF92DF92EF92FF923A
:1008B0000F931F93CF93DF936B01770FEE08FF0821
:1008C000F7FE1BC0EC016DE20E9484018C014427FD
:1008D0005527BA014C195D096E097F092AE0CE013E
:1008E0000E940B04800F911FDF91CF911F910F91F8
:1008F000FF90EF90DF90CF9008952AE0B701A60116
:10090000DF91CF911F910F91FF90EF90DF90CF90EB
:100910000C940B047F928F929F92AF92BF92CF92D2
:10092000DF92EF92FF920F931F93CF93DF938C018F
:100930006A017B01722E9A01AB01C701B6010E94C8
:100940006B0B882319F062E271E027C04601570162
:10095000E894B7F82FEF3FEF4FE75FE7C501B40129
:100960000E946B0B81110DC02FEF3FEF4FE75FE748
:10097000C501B4010E94A10918161CF466E271E0D9
:100980000CC02FEF3FEF4FE75FE4C701B6010E94B5
:10099000F90A181694F46AE271E0C801DF91CF9168
:1009A0001F910F91FF90EF90DF90CF90BF90AF908D
:1009B0009F908F907F900C94F6032FEF3FEF4FE7BF
:1009C0005FECC701B6010E94A10987FDE4CF20E0DA
:1009D00030E0A901C701B6010E94A10987FF0AC042
:1009E0006DE2C8010E948401EC01F7FAF094F7F877
:1009F000F09402C0C0E0D0E0B12C60E070E080E094
:100A00009FE37B1441F020E030E040E251E40E949B
:100A1000A609B394F6CFA70196010E9435096B0190
:100A20007C010E94180A4B015C012AE0AB01BC0169
:100A3000C8010E940B04C80FD91F7720C1F1C5015E
:100A4000B4010E94470A9B01AC01C701B6010E9494
:100A500034096B017C016EE2C8010E948401C80F59
:100A6000D91F20E030E040E251E4C701B6010E9406
:100A7000FE0A4B015C010E94180A6B01E12CF12C6B
:100A80002AE0B701A601C8010E940B04C80FD91FB4
:100A9000C701B6010E94470A9B01AC01C501B40120
:100AA0000E9434096B017C017A947110DACFCE0177
:100AB000DF91CF911F910F91FF90EF90DF90CF903A
:100AC000BF90AF909F908F907F9008950C94F60305
:100AD0004F925F926F927F92AF92BF92CF92DF92CE
:100AE000EF92FF920F931F93CF93DF93EC017B0163
:100AF00080E00E94D303BE0182E092E00E9466057E
:100B000000E011E05801CC24C394D12CF50181916F
:100B10005F010E942B03BC01990F880B990B0E9467
:100B2000490A20E030EC4FE754E40E94A60920E097
:100B300030E040EA50E40E94FE0A20E030E84BEB4F
:100B400057E40E94FE0A20E030E44CE156E40E94A3
:100B5000A60920E030E040EC51E40E943409F7019E
:100B600009952B013C018C2D0E94D3036EE271E0AC
:100B700082E092E00E946605B60182E092E00E9467
:100B8000540469E571E082E092E00E94660522E08B
:100B9000B301A20182E092E00E948A0461E371E065
:100BA00082E092E00E94660520E030E0A901C301E6
:100BB000B2010E94F90A18165CF420E030E040EA25
:100BC00051E4C301B2010E94F90A18165CF00CC08E
:100BD00020E030E040EA51ECC301B2010E94A109DB
:100BE00087FF02C061E001C060E08DE00E94C002AA
:100BF0008FEFC81AD80AE5E0CE16D10409F086CFE7
:100C000068EE73E080E090E00E946703EAE9F2E0BA
:100C10008491E6E8F2E0C490E2E7F2E0D490DD20CF
:100C200009F472C081110E949702ED2DF0E0EE0FE1
:100C3000FF1FE859FF4FA591B491EC91CE2209F422
:100C400063C0BE0185E691E00E94660565E371E040
:100C500085E691E00E94F603C0E0D0E0F8018191C2
:100C60008F010E942B03BC01990F880B990B0E94E6
:100C7000490A20E030EC4FE754E40E94A60920E046
:100C800030E040EA50E40E94FE0A20E030E84BEBFE
:100C900057E40E94FE0A20E030E44CE156E40E9452
:100CA000A60920E030E040EC51E40E943409F7014D
:100CB00009952B013C016EE271E085E691E00E940E
:100CC00066052196BE0185E691E00E94540469E51F
:100CD00071E085E691E00E94660522E0B301A20181
:100CE00085E691E00E948A0461E371E085E691E087
:100CF0000E94660565E371E085E691E00E94F603D7
:100D0000C430D10509F0AACFDF91CF911F910F9187
:100D1000FF90EF90DF90CF90BF90AF907F906F905B
:100D20005F904F900895CF92DF92EF92FF920F93D2
:100D30001F93CF93DF9300D000D01F92CDB7DEB7C3
:100D400067FD57C07C01862F90E0603260F080978D
:100D500025E0289FB001299F700D11246E587F4F08
:100D600045E050E00FC0FC013796EE0FFF1FEE0D7F
:100D7000FF1D008111810115110559F445E050E076
:100D800062E770E0CE0101960E942B098E010F5F91
:100D90001F4F680185E0C80ED11CF80141918F01F9
:100DA00061E0C7010E94A5030C151D05B1F740E0E5
:100DB00061E0C7010E94A503F701848590E00696D3
:100DC000628570E00E94700B8487811115C02585B3
:100DD00030E02F5F3F4F938569E3969F612D11248B
:100DE000669570E06F5F7F4FC9010E94700B858729
:100DF00003C080E090E002C081E090E00F900F908F
:100E00000F900F900F90DF91CF911F910F91FF9056
:100E1000EF90DF90CF9008951F920F920FB60F9230
:100E200011242F933F934F935F936F937F938F93EF
:100E30009F93AF93BF93EF93FF9385E691E00E945A
:100E4000FC01FF91EF91BF91AF919F918F917F91A5
:100E50006F915F914F913F912F910F900FBE0F9027
:100E60001F9018951F920F920FB60F9211242F9377
:100E70008F939F93EF93FF93E0917501F09176012B
:100E80008081E0917B01F0917C0182FD12C0908114
:100E900080917E018F5F8F7320917F01821751F0C7
:100EA000E0917E01F0E0EB59FE4F958F80937E013B
:100EB00001C08081FF91EF919F918F912F910F90B1
:100EC0000FBE0F901F9018951F920F920FB60F92A2
:100ED00011242F933F938F939F93AF93BF93809150
:100EE0005D0190915E01A0915F01B0916001309130
:100EF0005C0123E0230F2D3720F40196A11DB11DC5
:100F000005C026E8230F0296A11DB11D20935C01A8
:100F100080935D0190935E01A0935F01B0936001A7
:100F20008091610190916201A0916301B09164018F
:100F30000196A11DB11D8093610190936201A09360
:100F40006301B0936401BF91AF919F918F913F91E5
:100F50002F910F900FBE0F901F901895E5E6F1E0CE
:100F60001382128288EE93E0A0E0B0E08483958340
:100F7000A683B78388E091E09183808385EC90E03D
:100F80009587848784EC90E09787868780EC90E053
:100F9000918B808B81EC90E0938B828B82EC90E044
:100FA000958B848B86EC90E0978B868B118E128EBE
:100FB000138E148EE2E0F2E0138212828AE191E055
:100FC0009183808383E0848384E0858385E08683C6
:100FD00086E0878387E080870895789484B582606F
:100FE00084BD84B5816084BD85B5826085BD85B5CD
:100FF000816085BD80916E00816080936E0010924B
:1010000081008091810082608093810080918100C5
:101010008160809381008091800081608093800056
:101020008091B10084608093B1008091B0008160B4
:101030008093B00080917A00846080937A008091E0
:101040007A00826080937A0080917A008160809338
:101050007A0080917A00806880937A001092C100B3
:1010600084E580930C0280E380930D0210920B02C2
:1010700010920E0210920F0280E4E0E1F2E0DF0134
:101080001D928A95E9F761E0809106020E94EF02C5
:1010900061E0809107020E94EF0261E08091080206
:1010A0000E94EF0261E0809109020E94EF0261E07C
:1010B00080910A020E94EF0261E0809109020E9481
:1010C000C00261E080910A020E94C00260E080914B
:1010D00009020E94C00264E670E080E090E00E9495
:1010E000670361E0809109020E94C00241E260E072
:1010F00082E092E00E94A50343E160E082E092E09A
:101100000E94A50380910B02813041F440EE60E023
:1011100082E092E00E94A50345E001C042EC60E05D
:1011200082E092E00E94A50340E260E082E092E06B
:101130000E94A50349E060E082E092E00E94A503DE
:1011400080E00E94D303C0E0D0E090910C02809137
:101150000D02869586958695989FC0011124C81723
:10116000D90740F440E061E082E092E00E94A503EC
:101170002196EBCF80E00E94D30348E060E082E05C
:1011800092E00E94A5034CE060E082E092E00E94C1
:10119000A50364E670E080E090E00E94670340E809
:1011A00060E082E092E00E94A50340E460E082E01B
:1011B00092E00E94A503E0917501F091760182E032
:1011C0008083E0917101F09172011082E0917301CE
:1011D000F09174018FEC808310927D01E091790190
:1011E000F0917A0186E08083E0917701F0917801B7
:1011F000808180618083E0917701F0917801808126
:1012000088608083E0917701F09178018081806827
:101210008083E0917701F091780180818F7D8083D8
:1012200061E08DE00E94EF0260E08CE00E94EF023E
:1012300084E00E942B03892B29F463E871E088E3A2
:1012400091E004C06CE771E08AE491E00E946805D7
:101250000E948D02EDCFFB01DC0102C005900D92D2
:1012600041505040D8F708955058BB27AA270E94F4
:101270004C090C94BF0A0E94B10A38F00E94B80AC7
:1012800020F039F49F3F19F426F40C94AE0A0EF4C2
:10129000E095E7FB0C94A80AE92F0E94D00A58F3C6
:1012A000BA17620773078407950720F079F4A6F54B
:1012B0000C94F20A0EF4E0950B2EBA2FA02D0B0120
:1012C000B90190010C01CA01A0011124FF27591B8B
:1012D00099F0593F50F4503E68F11A16F040A22F91
:1012E000232F342F4427585FF3CF46953795279502
:1012F000A795F0405395C9F77EF41F16BA0B620B01
:10130000730B840BBAF09150A1F0FF0FBB1F661F47
:10131000771F881FC2F70EC0BA0F621F731F841F8A
:1013200048F4879577956795B795F7959E3F08F0B0
:10133000B0CF9395880F08F09927EE0F9795879572
:1013400008950E94840A08F481E008950E94BA0971
:101350000C94BF0A0E94B80A58F00E94B10A40F0EB
:1013600029F45F3F29F00C94A80A51110C94F30A58
:101370000C94AE0A0E94D00A68F39923B1F3552366
:1013800091F3951B550BBB27AA2762177307840798
:1013900038F09F5F5F4F220F331F441FAA1FA9F32E
:1013A00035D00E2E3AF0E0E832D091505040E6951C
:1013B000001CCAF72BD0FE2F29D0660F771F881F7D
:1013C000BB1F261737074807AB07B0E809F0BB0B70
:1013D000802DBF01FF2793585F4F3AF09E3F510584
:1013E00078F00C94A80A0C94F30A5F3FE4F3983E5B
:1013F000D4F3869577956795B795F7959F5FC9F76D
:10140000880F911D9695879597F90895E1E0660FED
:10141000771F881FBB1F621773078407BA0720F066
:10142000621B730B840BBA0BEE1F88F7E0950895CF
:101430000E94D80A88F09F5798F0B92F9927B75182
:10144000B0F0E1F0660F771F881F991F1AF0BA9568
:10145000C9F714C0B13091F00E94F20AB1E00895CA
:101460000C94F20A672F782F8827B85F39F0B93FBC
:10147000CCF3869577956795B395D9F73EF490951B
:101480008095709561957F4F8F4F9F4F0895E89499
:1014900009C097FB3EF490958095709561957F4FBC
:1014A0008F4F9F4F9923A9F0F92F96E9BB2793956A
:1014B000F695879577956795B795F111F8CFFAF47A
:1014C000BB0F11F460FF1BC06F5F7F4F8F4F9F4FAB
:1014D00016C0882311F096E911C0772321F09EE809
:1014E000872F762F05C0662371F096E8862F70E06F
:1014F00060E02AF09A95660F771F881FDAF7880F49
:101500009695879597F90895990F0008550FAA0B9E
:10151000E0E8FEEF16161706E807F907C0F0121606
:101520001306E407F50798F0621B730B840B950B09
:1015300039F40A2661F0232B242B252B21F408955E
:101540000A2609F4A140A6958FEF811D811D0895FB
:1015500097F99F6780E870E060E008959FEF80EC66
:10156000089500240A941616170618060906089509
:1015700000240A9412161306140605060895092E6F
:101580000394000C11F4882352F0BB0F40F4BF2BDE
:1015900011F460FF04C06F5F7F4F8F4F9F4F08951E
:1015A00057FD9058440F551F59F05F3F71F0479514
:1015B000880F97FB991F61F09F3F79F087950895F9
:1015C000121613061406551FF2CF4695F1DF08C018
:1015D000161617061806991FF1CF86957105610535
:1015E00008940895E894BB2766277727CB0197F9DD
:1015F00008950E94840A08F48FEF08950E94110B49
:101600000C94BF0A0E94B10A38F00E94B80A20F078
:10161000952311F00C94A80A0C94AE0A11240C9492
:10162000F30A0E94D00A70F3959FC1F3950F50E022
:10163000551F629FF001729FBB27F00DB11D639F84
:10164000AA27F00DB11DAA1F649F6627B00DA11D2A
:10165000661F829F2227B00DA11D621F739FB00DD0
:10166000A11D621F839FA00D611D221F749F332740
:10167000A00D611D231F849F600D211D822F762FD9
:101680006A2F11249F5750409AF0F1F088234AF0B6
:10169000EE0FFF1FBB1F661F771F881F9150504022
:1016A000A9F79E3F510580F00C94A80A0C94F30A08
:1016B0005F3FE4F3983ED4F3869577956795B795A9
:1016C000F795E7959F5FC1F7FE2B880F911D9695C3
:1016D000879597F908950E94840A880B990B0895BD
:1016E00097FB072E16F4009407D077FD09D00E94CF
:1016F000A60B07FC05D03EF4909581959F4F089569
:10170000709561957F4F0895A1E21A2EAA1BBB1B0D
:10171000FD010DC0AA1FBB1FEE1FFF1FA217B307BD
:10172000E407F50720F0A21BB30BE40BF50B661FD3
:10173000771F881F991F1A9469F760957095809597
:1017400090959B01AC01BD01CF010895AA1BBB1B65
:1017500051E107C0AA1FBB1FA617B70710F0A61BB1
:10176000B70B881F991F5A95A9F780959095BC01D2
:10177000CD010895EE0FFF1F0590F491E02D09941F
:0E17800081E090E0F8940C94C50BF894FFCF34
:10178E0000010203000000001E028B01B5016B0276
:10179E00E601C401D8010000000093068B01A203EC
:1017AE00A1036E616E00696E66006F76660020564C
:1017BE0000205620000D0A0020566F6C74616A6579
:1017CE007320656E2044433A200020566F6C74617E
:0C17DE006A657320656E2041433A2000CC
:00000001FF
